{
  "contractName": "Counter",
  "abi": [
    {
      "inputs": [],
      "stateMutability": "nonpayable",
      "type": "constructor"
    },
    {
      "inputs": [],
      "name": "counter",
      "outputs": [
        {
          "internalType": "int256",
          "name": "",
          "type": "int256"
        }
      ],
      "stateMutability": "view",
      "type": "function"
    },
    {
      "inputs": [],
      "name": "incrementCounter",
      "outputs": [
        {
          "internalType": "int256",
          "name": "",
          "type": "int256"
        }
      ],
      "stateMutability": "nonpayable",
      "type": "function"
    }
  ],
  "bytecode": "0x608060405234801561001057600080fd5b5060008081905550610199806100276000396000f3fe608060405234801561001057600080fd5b5060043610610053576000357c0100000000000000000000000000000000000000000000000000000000900480635b34b9661461005857806361bc221a14610076575b600080fd5b610060610094565b60405161006d91906100d0565b60405180910390f35b61007e6100b1565b60405161008b91906100d0565b60405180910390f35b60008060008154809291906100a89061011a565b91905055905090565b60005481565b6000819050919050565b6100ca816100b7565b82525050565b60006020820190506100e560008301846100c1565b92915050565b7f4e487b7100000000000000000000000000000000000000000000000000000000600052601160045260246000fd5b6000610125826100b7565b91507f7fffffffffffffffffffffffffffffffffffffffffffffffffffffffffffffff821415610158576101576100eb565b5b60018201905091905056fea26469706673582212208811aa970a3a13fea08ad5a1530c68bbae3107f5d1ae3b954e3b71d52d9d8ab664736f6c634300080c0033",
  "immutableReferences": {},
  "source": "// SPDX-License-Identifier: MIT\r\npragma solidity >=0.4.22 <0.9.0;\r\n\r\ncontract Counter {\r\n  int public counter;\r\n\r\n  constructor() {\r\n    counter = 0;\r\n  }\r\n\r\n  function incrementCounter() public returns(int) {\r\n    return counter++;\r\n  }\r\n}",
  "sourcePath": "D:\\Delete Workspaces\\Flutter\\flutter_smart_contract_counter\\contracts\\Counter.sol",
  "compiler": {
    "name": "solc",
    "version": "0.8.12+commit.f00d7308.Emscripten.clang"
  },
  "schemaVersion": "3.4.6",
  "updatedAt": "2022-03-19T16:30:23.464Z",
  "devdoc": {
    "kind": "dev",
    "methods": {},
    "version": 1
  },
  "userdoc": {
    "kind": "user",
    "methods": {},
    "version": 1
  }
}