{
  "contractName": "Stakeable",
  "abi": [
    {
      "inputs": [],
      "stateMutability": "nonpayable",
      "type": "constructor"
    },
    {
      "anonymous": false,
      "inputs": [
        {
          "indexed": true,
          "internalType": "address",
          "name": "user",
          "type": "address"
        },
        {
          "indexed": false,
          "internalType": "uint256",
          "name": "amount",
          "type": "uint256"
        },
        {
          "indexed": false,
          "internalType": "uint256",
          "name": "index",
          "type": "uint256"
        },
        {
          "indexed": false,
          "internalType": "uint256",
          "name": "timestamp",
          "type": "uint256"
        }
      ],
      "name": "Staked",
      "type": "event"
    },
    {
      "inputs": [
        {
          "internalType": "address",
          "name": "_staker",
          "type": "address"
        }
      ],
      "name": "hasStake",
      "outputs": [
        {
          "components": [
            {
              "internalType": "uint256",
              "name": "totalAmount",
              "type": "uint256"
            },
            {
              "components": [
                {
                  "internalType": "address",
                  "name": "user",
                  "type": "address"
                },
                {
                  "internalType": "uint256",
                  "name": "amount",
                  "type": "uint256"
                },
                {
                  "internalType": "uint256",
                  "name": "since",
                  "type": "uint256"
                },
                {
                  "internalType": "uint256",
                  "name": "claimable",
                  "type": "uint256"
                }
              ],
              "internalType": "struct Stakeable.Stake[]",
              "name": "stakes",
              "type": "tuple[]"
            }
          ],
          "internalType": "struct Stakeable.StakingSummary",
          "name": "",
          "type": "tuple"
        }
      ],
      "stateMutability": "view",
      "type": "function"
    }
  ],
  "bytecode": "0x60806040526103e860025534801561001657600080fd5b50600060018160018154018082558091505003906000526020600020905050610721806100446000396000f3fe608060405234801561001057600080fd5b5060043610610048576000357c010000000000000000000000000000000000000000000000000000000090048063e73e14bf1461004d575b600080fd5b61006760048036038101906100629190610348565b61007d565b60405161007491906104de565b60405180910390f35b6100856102cb565b6000806040518060400160405280600081526020016000600160008873ffffffffffffffffffffffffffffffffffffffff1673ffffffffffffffffffffffffffffffffffffffff16815260200190815260200160002054815481106100ed576100ec610500565b5b9060005260206000209060020201600101805480602002602001604051908101604052809291908181526020016000905b828210156101c457838290600052602060002090600402016040518060800160405290816000820160009054906101000a900473ffffffffffffffffffffffffffffffffffffffff1673ffffffffffffffffffffffffffffffffffffffff1673ffffffffffffffffffffffffffffffffffffffff16815260200160018201548152602001600282015481526020016003820154815250508152602001906001019061011e565b50505050815250905060005b816020015151811015610274576000610206836020015183815181106101f9576101f8610500565b5b6020026020010151610289565b905080836020015183815181106102205761021f610500565b5b602002602001015160600181815250508260200151828151811061024757610246610500565b5b6020026020010151602001518461025e919061055e565b935050808061026c906105b4565b9150506101d0565b50818160000181815250508092505050919050565b60006002548260200151610e108460400151426102a691906105fd565b6102b09190610660565b6102ba9190610691565b6102c49190610660565b9050919050565b604051806040016040528060008152602001606081525090565b600080fd5b600073ffffffffffffffffffffffffffffffffffffffff82169050919050565b6000610315826102ea565b9050919050565b6103258161030a565b811461033057600080fd5b50565b6000813590506103428161031c565b92915050565b60006020828403121561035e5761035d6102e5565b5b600061036c84828501610333565b91505092915050565b6000819050919050565b61038881610375565b82525050565b600081519050919050565b600082825260208201905092915050565b6000819050602082019050919050565b6103c38161030a565b82525050565b6080820160008201516103df60008501826103ba565b5060208201516103f2602085018261037f565b506040820151610405604085018261037f565b506060820151610418606085018261037f565b50505050565b600061042a83836103c9565b60808301905092915050565b6000602082019050919050565b600061044e8261038e565b6104588185610399565b9350610463836103aa565b8060005b8381101561049457815161047b888261041e565b975061048683610436565b925050600181019050610467565b5085935050505092915050565b60006040830160008301516104b9600086018261037f565b50602083015184820360208601526104d18282610443565b9150508091505092915050565b600060208201905081810360008301526104f881846104a1565b905092915050565b7f4e487b7100000000000000000000000000000000000000000000000000000000600052603260045260246000fd5b7f4e487b7100000000000000000000000000000000000000000000000000000000600052601160045260246000fd5b600061056982610375565b915061057483610375565b9250827fffffffffffffffffffffffffffffffffffffffffffffffffffffffffffffffff038211156105a9576105a861052f565b5b828201905092915050565b60006105bf82610375565b91507fffffffffffffffffffffffffffffffffffffffffffffffffffffffffffffffff8214156105f2576105f161052f565b5b600182019050919050565b600061060882610375565b915061061383610375565b9250828210156106265761062561052f565b5b828203905092915050565b7f4e487b7100000000000000000000000000000000000000000000000000000000600052601260045260246000fd5b600061066b82610375565b915061067683610375565b92508261068657610685610631565b5b828204905092915050565b600061069c82610375565b91506106a783610375565b9250817fffffffffffffffffffffffffffffffffffffffffffffffffffffffffffffffff04831182151516156106e0576106df61052f565b5b82820290509291505056fea2646970667358221220ac0377cfaee246e995c5460c05e89c58516d15c5407100b5304d14913149477964736f6c634300080c0033",
  "immutableReferences": {},
  "source": "// SPDX-License-Identifier: MIT\r\npragma solidity >=0.4.22 <0.9.0;\r\n\r\ncontract Stakeable {\r\n    struct Stake {\r\n        address user;\r\n        uint256 amount;\r\n        uint256 since;\r\n        uint256 claimable;\r\n    }\r\n\r\n    struct Stakeholder {\r\n        address user;\r\n        Stake[] addressStakes;\r\n    }\r\n\r\n    struct StakingSummary {\r\n        uint256 totalAmount;\r\n        Stake[] stakes;\r\n    }\r\n\r\n    Stakeholder[] internal stakeholders;\r\n\r\n    mapping(address => uint256) internal stakes;\r\n\r\n    event Staked(\r\n        address indexed user,\r\n        uint256 amount,\r\n        uint256 index,\r\n        uint256 timestamp\r\n    );\r\n\r\n    uint256 internal rewardPerHour = 1000;\r\n\r\n    constructor() {\r\n        stakeholders.push();\r\n    }\r\n\r\n    function _addStakeholder(address staker) internal returns (uint256) {\r\n        stakeholders.push();\r\n\r\n        uint256 userIndex = stakeholders.length - 1;\r\n\r\n        stakeholders[userIndex].user = staker;\r\n\r\n        stakes[staker] = userIndex;\r\n        return userIndex;\r\n    }\r\n\r\n    function _stake(uint256 _amount) internal {\r\n        require(_amount > 0, \"Cannot stake nothing\");\r\n\r\n        uint256 index = stakes[msg.sender];\r\n        uint256 timestamp = block.timestamp;\r\n\r\n        if (index == 0) {\r\n            index = _addStakeholder(msg.sender);\r\n        }\r\n\r\n        stakeholders[index].addressStakes.push(\r\n            Stake(msg.sender, _amount, timestamp, 0)\r\n        );\r\n\r\n        emit Staked(msg.sender, _amount, index, timestamp);\r\n    }\r\n\r\n    function calculateStakeReward(Stake memory _currentStake)\r\n        internal\r\n        view\r\n        returns (uint256)\r\n    {\r\n        return\r\n            (((block.timestamp - _currentStake.since) / 1 hours) *\r\n                _currentStake.amount) / rewardPerHour;\r\n    }\r\n\r\n    function _withdrawStake(uint256 _amount, uint256 index)\r\n        internal\r\n        returns (uint256)\r\n    {\r\n        uint256 userIndex = stakes[msg.sender];\r\n        Stake memory currentStake = stakeholders[userIndex].addressStakes[\r\n            index\r\n        ];\r\n        require(\r\n            currentStake.amount >= _amount,\r\n            \"Cannot withdraw more than you have staked\"\r\n        );\r\n\r\n        uint256 reward = calculateStakeReward(currentStake);\r\n\r\n        currentStake.amount -= _amount;\r\n        if (currentStake.amount == 0) {\r\n            delete stakeholders[userIndex].addressStakes[index];\r\n        } else {\r\n            stakeholders[userIndex].addressStakes[index].amount = currentStake\r\n                .amount;\r\n            stakeholders[userIndex].addressStakes[index].since = block\r\n                .timestamp;\r\n        }\r\n\r\n        return _amount + reward;\r\n    }\r\n\r\n    function hasStake(address _staker)\r\n        public\r\n        view\r\n        returns (StakingSummary memory)\r\n    {\r\n        uint256 totalStakeAmount;\r\n\r\n        StakingSummary memory summary = StakingSummary(\r\n            0,\r\n            stakeholders[stakes[_staker]].addressStakes\r\n        );\r\n\r\n        for (uint256 i = 0; i < summary.stakes.length; i++) {\r\n            uint256 availableReward = calculateStakeReward(summary.stakes[i]);\r\n            summary.stakes[i].claimable = availableReward;\r\n            totalStakeAmount += summary.stakes[i].amount;\r\n        }\r\n\r\n        summary.totalAmount = totalStakeAmount;\r\n        return summary;\r\n    }\r\n}\r\n",
  "sourcePath": "D:\\Delete Workspaces\\Flutter\\flutter_token\\contracts\\Stakeable.sol",
  "compiler": {
    "name": "solc",
    "version": "0.8.12+commit.f00d7308.Emscripten.clang"
  },
  "schemaVersion": "3.4.6",
  "updatedAt": "2022-04-14T06:16:19.444Z",
  "devdoc": {
    "kind": "dev",
    "methods": {},
    "version": 1
  },
  "userdoc": {
    "kind": "user",
    "methods": {},
    "version": 1
  }
}