{
  "contractName": "Token",
  "abi": [
    {
      "inputs": [
        {
          "internalType": "string",
          "name": "_name",
          "type": "string"
        },
        {
          "internalType": "string",
          "name": "_symbol",
          "type": "string"
        },
        {
          "internalType": "uint256",
          "name": "_initialSupply",
          "type": "uint256"
        }
      ],
      "stateMutability": "nonpayable",
      "type": "constructor"
    },
    {
      "anonymous": false,
      "inputs": [
        {
          "indexed": true,
          "internalType": "address",
          "name": "from",
          "type": "address"
        },
        {
          "indexed": true,
          "internalType": "address",
          "name": "to",
          "type": "address"
        },
        {
          "indexed": false,
          "internalType": "uint256",
          "name": "value",
          "type": "uint256"
        }
      ],
      "name": "Transfer",
      "type": "event"
    },
    {
      "inputs": [
        {
          "internalType": "address",
          "name": "",
          "type": "address"
        }
      ],
      "name": "balanceOf",
      "outputs": [
        {
          "internalType": "uint256",
          "name": "",
          "type": "uint256"
        }
      ],
      "stateMutability": "view",
      "type": "function"
    },
    {
      "inputs": [],
      "name": "decimals",
      "outputs": [
        {
          "internalType": "uint8",
          "name": "",
          "type": "uint8"
        }
      ],
      "stateMutability": "view",
      "type": "function"
    },
    {
      "inputs": [],
      "name": "name",
      "outputs": [
        {
          "internalType": "string",
          "name": "",
          "type": "string"
        }
      ],
      "stateMutability": "view",
      "type": "function"
    },
    {
      "inputs": [],
      "name": "owner",
      "outputs": [
        {
          "internalType": "address payable",
          "name": "",
          "type": "address"
        }
      ],
      "stateMutability": "view",
      "type": "function"
    },
    {
      "inputs": [],
      "name": "symbol",
      "outputs": [
        {
          "internalType": "string",
          "name": "",
          "type": "string"
        }
      ],
      "stateMutability": "view",
      "type": "function"
    },
    {
      "inputs": [],
      "name": "totalSupply",
      "outputs": [
        {
          "internalType": "uint256",
          "name": "",
          "type": "uint256"
        }
      ],
      "stateMutability": "view",
      "type": "function"
    },
    {
      "inputs": [
        {
          "internalType": "uint256",
          "name": "_amount",
          "type": "uint256"
        }
      ],
      "name": "mint",
      "outputs": [
        {
          "internalType": "bool",
          "name": "success",
          "type": "bool"
        }
      ],
      "stateMutability": "nonpayable",
      "type": "function"
    },
    {
      "inputs": [
        {
          "internalType": "uint256",
          "name": "_amount",
          "type": "uint256"
        }
      ],
      "name": "burn",
      "outputs": [
        {
          "internalType": "bool",
          "name": "success",
          "type": "bool"
        }
      ],
      "stateMutability": "nonpayable",
      "type": "function"
    },
    {
      "inputs": [
        {
          "internalType": "address",
          "name": "_to",
          "type": "address"
        },
        {
          "internalType": "uint256",
          "name": "_value",
          "type": "uint256"
        }
      ],
      "name": "transfer",
      "outputs": [
        {
          "internalType": "bool",
          "name": "success",
          "type": "bool"
        }
      ],
      "stateMutability": "nonpayable",
      "type": "function"
    }
  ],
  "bytecode": "0x60806040523480156200001157600080fd5b50604051620016543803806200165483398181016040528101906200003791906200044e565b82600090805190602001906200004f929190620001c6565b50816001908051906020019062000068929190620001c6565b506012600260006101000a81548160ff021916908360ff160217905550670de0b6b3a764000060048190555060045481620000a4919062000517565b60038190555033600560006101000a81548173ffffffffffffffffffffffffffffffffffffffff021916908373ffffffffffffffffffffffffffffffffffffffff16021790555060035460066000600560009054906101000a900473ffffffffffffffffffffffffffffffffffffffff1673ffffffffffffffffffffffffffffffffffffffff1673ffffffffffffffffffffffffffffffffffffffff168152602001908152602001600020819055503373ffffffffffffffffffffffffffffffffffffffff16600073ffffffffffffffffffffffffffffffffffffffff167fddf252ad1be2c89b69c2b068fc378daa952ba7f163c4a11628f55a4df523b3ef600354604051620001b5919062000589565b60405180910390a35050506200060b565b828054620001d490620005d5565b90600052602060002090601f016020900481019282620001f8576000855562000244565b82601f106200021357805160ff191683800117855562000244565b8280016001018555821562000244579182015b828111156200024357825182559160200191906001019062000226565b5b50905062000253919062000257565b5090565b5b808211156200027257600081600090555060010162000258565b5090565b6000604051905090565b600080fd5b600080fd5b600080fd5b600080fd5b6000601f19601f8301169050919050565b7f4e487b7100000000000000000000000000000000000000000000000000000000600052604160045260246000fd5b620002df8262000294565b810181811067ffffffffffffffff82111715620003015762000300620002a5565b5b80604052505050565b60006200031662000276565b9050620003248282620002d4565b919050565b600067ffffffffffffffff821115620003475762000346620002a5565b5b620003528262000294565b9050602081019050919050565b60005b838110156200037f57808201518184015260208101905062000362565b838111156200038f576000848401525b50505050565b6000620003ac620003a68462000329565b6200030a565b905082815260208101848484011115620003cb57620003ca6200028f565b5b620003d88482856200035f565b509392505050565b600082601f830112620003f857620003f76200028a565b5b81516200040a84826020860162000395565b91505092915050565b6000819050919050565b620004288162000413565b81146200043457600080fd5b50565b60008151905062000448816200041d565b92915050565b6000806000606084860312156200046a576200046962000280565b5b600084015167ffffffffffffffff8111156200048b576200048a62000285565b5b6200049986828701620003e0565b935050602084015167ffffffffffffffff811115620004bd57620004bc62000285565b5b620004cb86828701620003e0565b9250506040620004de8682870162000437565b9150509250925092565b7f4e487b7100000000000000000000000000000000000000000000000000000000600052601160045260246000fd5b6000620005248262000413565b9150620005318362000413565b9250817fffffffffffffffffffffffffffffffffffffffffffffffffffffffffffffffff04831182151516156200056d576200056c620004e8565b5b828202905092915050565b620005838162000413565b82525050565b6000602082019050620005a0600083018462000578565b92915050565b7f4e487b7100000000000000000000000000000000000000000000000000000000600052602260045260246000fd5b60006002820490506001821680620005ee57607f821691505b60208210811415620006055762000604620005a6565b5b50919050565b611039806200061b6000396000f3fe608060405234801561001057600080fd5b50600436106100b0576000357c01000000000000000000000000000000000000000000000000000000009004806370a082311161008357806370a082311461013f5780638da5cb5b1461016f57806395d89b411461018d578063a0712d68146101ab578063a9059cbb146101db576100b0565b806306fdde03146100b557806318160ddd146100d3578063313ce567146100f157806342966c681461010f575b600080fd5b6100bd61020b565b6040516100ca91906109b9565b60405180910390f35b6100db610299565b6040516100e891906109f4565b60405180910390f35b6100f961029f565b6040516101069190610a2b565b60405180910390f35b61012960048036038101906101249190610a77565b6102b2565b6040516101369190610abf565b60405180910390f35b61015960048036038101906101549190610b38565b61046c565b60405161016691906109f4565b60405180910390f35b610177610484565b6040516101849190610b86565b60405180910390f35b6101956104aa565b6040516101a291906109b9565b60405180910390f35b6101c560048036038101906101c09190610a77565b610538565b6040516101d29190610abf565b60405180910390f35b6101f560048036038101906101f09190610ba1565b6106cf565b6040516102029190610abf565b60405180910390f35b6000805461021890610c10565b80601f016020809104026020016040519081016040528092919081815260200182805461024490610c10565b80156102915780601f1061026657610100808354040283529160200191610291565b820191906000526020600020905b81548152906001019060200180831161027457829003601f168201915b505050505081565b60035481565b600260009054906101000a900460ff1681565b60008073ffffffffffffffffffffffffffffffffffffffff163373ffffffffffffffffffffffffffffffffffffffff161415610323576040517f08c379a000000000000000000000000000000000000000000000000000000000815260040161031a90610c8e565b60405180910390fd5b8160035411610367576040517f08c379a000000000000000000000000000000000000000000000000000000000815260040161035e90610cfa565b60405180910390fd5b600454826103759190610d49565b600360008282546103869190610da3565b925050819055506004548261039b9190610d49565b600660003373ffffffffffffffffffffffffffffffffffffffff1673ffffffffffffffffffffffffffffffffffffffff16815260200190815260200160002060008282546103e99190610da3565b92505081905550600073ffffffffffffffffffffffffffffffffffffffff163373ffffffffffffffffffffffffffffffffffffffff167fddf252ad1be2c89b69c2b068fc378daa952ba7f163c4a11628f55a4df523b3ef6004548561044e9190610d49565b60405161045b91906109f4565b60405180910390a360019050919050565b60066020528060005260406000206000915090505481565b600560009054906101000a900473ffffffffffffffffffffffffffffffffffffffff1681565b600180546104b790610c10565b80601f01602080910402602001604051908101604052809291908181526020018280546104e390610c10565b80156105305780601f1061050557610100808354040283529160200191610530565b820191906000526020600020905b81548152906001019060200180831161051357829003601f168201915b505050505081565b6000600560009054906101000a900473ffffffffffffffffffffffffffffffffffffffff1673ffffffffffffffffffffffffffffffffffffffff163373ffffffffffffffffffffffffffffffffffffffff16146105ca576040517f08c379a00000000000000000000000000000000000000000000000000000000081526004016105c190610e23565b60405180910390fd5b600454826105d89190610d49565b600360008282546105e99190610e43565b92505081905550600454826105fe9190610d49565b600660003373ffffffffffffffffffffffffffffffffffffffff1673ffffffffffffffffffffffffffffffffffffffff168152602001908152602001600020600082825461064c9190610e43565b925050819055503373ffffffffffffffffffffffffffffffffffffffff16600073ffffffffffffffffffffffffffffffffffffffff167fddf252ad1be2c89b69c2b068fc378daa952ba7f163c4a11628f55a4df523b3ef600454856106b19190610d49565b6040516106be91906109f4565b60405180910390a360019050919050565b60008073ffffffffffffffffffffffffffffffffffffffff168373ffffffffffffffffffffffffffffffffffffffff161415610740576040517f08c379a000000000000000000000000000000000000000000000000000000000815260040161073790610ee5565b60405180910390fd5b6000821015610784576040517f08c379a000000000000000000000000000000000000000000000000000000000815260040161077b90610f77565b60405180910390fd5b81600660003373ffffffffffffffffffffffffffffffffffffffff1673ffffffffffffffffffffffffffffffffffffffff1681526020019081526020016000205411610805576040517f08c379a00000000000000000000000000000000000000000000000000000000081526004016107fc90610fe3565b60405180910390fd5b81600660003373ffffffffffffffffffffffffffffffffffffffff1673ffffffffffffffffffffffffffffffffffffffff16815260200190815260200160002060008282546108549190610da3565b9250508190555081600660008573ffffffffffffffffffffffffffffffffffffffff1673ffffffffffffffffffffffffffffffffffffffff16815260200190815260200160002060008282546108aa9190610e43565b925050819055508273ffffffffffffffffffffffffffffffffffffffff163373ffffffffffffffffffffffffffffffffffffffff167fddf252ad1be2c89b69c2b068fc378daa952ba7f163c4a11628f55a4df523b3ef8460405161090e91906109f4565b60405180910390a36001905092915050565b600081519050919050565b600082825260208201905092915050565b60005b8381101561095a57808201518184015260208101905061093f565b83811115610969576000848401525b50505050565b6000601f19601f8301169050919050565b600061098b82610920565b610995818561092b565b93506109a581856020860161093c565b6109ae8161096f565b840191505092915050565b600060208201905081810360008301526109d38184610980565b905092915050565b6000819050919050565b6109ee816109db565b82525050565b6000602082019050610a0960008301846109e5565b92915050565b600060ff82169050919050565b610a2581610a0f565b82525050565b6000602082019050610a406000830184610a1c565b92915050565b600080fd5b610a54816109db565b8114610a5f57600080fd5b50565b600081359050610a7181610a4b565b92915050565b600060208284031215610a8d57610a8c610a46565b5b6000610a9b84828501610a62565b91505092915050565b60008115159050919050565b610ab981610aa4565b82525050565b6000602082019050610ad46000830184610ab0565b92915050565b600073ffffffffffffffffffffffffffffffffffffffff82169050919050565b6000610b0582610ada565b9050919050565b610b1581610afa565b8114610b2057600080fd5b50565b600081359050610b3281610b0c565b92915050565b600060208284031215610b4e57610b4d610a46565b5b6000610b5c84828501610b23565b91505092915050565b6000610b7082610ada565b9050919050565b610b8081610b65565b82525050565b6000602082019050610b9b6000830184610b77565b92915050565b60008060408385031215610bb857610bb7610a46565b5b6000610bc685828601610b23565b9250506020610bd785828601610a62565b9150509250929050565b7f4e487b7100000000000000000000000000000000000000000000000000000000600052602260045260246000fd5b60006002820490506001821680610c2857607f821691505b60208210811415610c3c57610c3b610be1565b5b50919050565b7f496e76616c6964206275726e20726563697069656e7400000000000000000000600082015250565b6000610c7860168361092b565b9150610c8382610c42565b602082019050919050565b60006020820190508181036000830152610ca781610c6b565b9050919050565b7f4275726e20616d6f756e7420657863656564732062616c616e63650000000000600082015250565b6000610ce4601b8361092b565b9150610cef82610cae565b602082019050919050565b60006020820190508181036000830152610d1381610cd7565b9050919050565b7f4e487b7100000000000000000000000000000000000000000000000000000000600052601160045260246000fd5b6000610d54826109db565b9150610d5f836109db565b9250817fffffffffffffffffffffffffffffffffffffffffffffffffffffffffffffffff0483118215151615610d9857610d97610d1a565b5b828202905092915050565b6000610dae826109db565b9150610db9836109db565b925082821015610dcc57610dcb610d1a565b5b828203905092915050565b7f4f7065726174696f6e20756e617574686f726973656400000000000000000000600082015250565b6000610e0d60168361092b565b9150610e1882610dd7565b602082019050919050565b60006020820190508181036000830152610e3c81610e00565b9050919050565b6000610e4e826109db565b9150610e59836109db565b9250827fffffffffffffffffffffffffffffffffffffffffffffffffffffffffffffffff03821115610e8e57610e8d610d1a565b5b828201905092915050565b7f5265636569766572206164647265737320696e76616c69640000000000000000600082015250565b6000610ecf60188361092b565b9150610eda82610e99565b602082019050919050565b60006020820190508181036000830152610efe81610ec2565b9050919050565b7f56616c7565206d7573742062652067726561746572206f7220657175616c207460008201527f6f20300000000000000000000000000000000000000000000000000000000000602082015250565b6000610f6160238361092b565b9150610f6c82610f05565b604082019050919050565b60006020820190508181036000830152610f9081610f54565b9050919050565b7f4e6f7420656e6f7567682062616c616e63650000000000000000000000000000600082015250565b6000610fcd60128361092b565b9150610fd882610f97565b602082019050919050565b60006020820190508181036000830152610ffc81610fc0565b905091905056fea264697066735822122049d1342c9442ad0cfd54b5c22605146ba836e40c56f495d9664b62e3775619f864736f6c634300080c0033",
  "immutableReferences": {},
  "source": "// SPDX-License-Identifier: MIT\r\npragma solidity >=0.4.22 <0.9.0;\r\n\r\ncontract Token {\r\n    string public name;\r\n    string public symbol;\r\n    uint8 public decimals;\r\n    uint256 public totalSupply;\r\n    uint256 _wei; // 1 Ether = 1000000000000000000 Wei\r\n    address payable public owner;\r\n\r\n    mapping(address => uint256) public balanceOf;\r\n\r\n    event Transfer(address indexed from, address indexed to, uint256 value);\r\n\r\n    constructor(\r\n        string memory _name,\r\n        string memory _symbol,\r\n        uint256 _initialSupply\r\n    ) {\r\n        name = _name;\r\n        symbol = _symbol;\r\n        decimals = 18;\r\n        _wei = 1000000000000000000;\r\n        totalSupply = _initialSupply * _wei;\r\n\r\n        owner = payable(msg.sender);\r\n\r\n        balanceOf[owner] = totalSupply;\r\n\r\n        emit Transfer(address(0), msg.sender, totalSupply);\r\n    }\r\n\r\n    function mint(uint256 _amount) public returns (bool success) {\r\n        require(msg.sender == owner, \"Operation unauthorised\");\r\n\r\n        totalSupply += (_amount * _wei);\r\n        balanceOf[msg.sender] += (_amount * _wei);\r\n\r\n        emit Transfer(address(0), msg.sender, _amount * _wei);\r\n        return true;\r\n    }\r\n\r\n    function burn(uint256 _amount) public returns (bool success) {\r\n        require(msg.sender != address(0), \"Invalid burn recipient\");\r\n        require(totalSupply > _amount, \"Burn amount exceeds balance\");\r\n\r\n        totalSupply -= (_amount * _wei);\r\n        balanceOf[msg.sender] -= (_amount * _wei);\r\n\r\n        emit Transfer(msg.sender, address(0), _amount * _wei);\r\n        return true;\r\n    }\r\n\r\n    function transfer(address _to, uint256 _value)\r\n        public\r\n        returns (bool success)\r\n    {\r\n        require(_to != address(0), \"Receiver address invalid\");\r\n        require(_value >= 0, \"Value must be greater or equal to 0\");\r\n        require(balanceOf[msg.sender] > _value, \"Not enough balance\");\r\n\r\n        balanceOf[msg.sender] -= (_value);\r\n        balanceOf[_to] += (_value);\r\n\r\n        emit Transfer(msg.sender, _to, _value);\r\n        return true;\r\n    }\r\n\r\n    // TODO: stake\r\n    // function stake(uint256 _amount) public returns (bool success) {\r\n    //     return true;\r\n    // }\r\n}\r\n",
  "sourcePath": "D:\\Delete Workspaces\\Flutter\\flutter_token\\contracts\\Token.sol",
  "compiler": {
    "name": "solc",
    "version": "0.8.12+commit.f00d7308.Emscripten.clang"
  },
  "schemaVersion": "3.4.6",
  "updatedAt": "2022-04-03T13:28:45.817Z",
  "devdoc": {
    "kind": "dev",
    "methods": {},
    "version": 1
  },
  "userdoc": {
    "kind": "user",
    "methods": {},
    "version": 1
  }
}