{
  "contractName": "Token",
  "abi": [
    {
      "inputs": [
        {
          "internalType": "string",
          "name": "_name",
          "type": "string"
        },
        {
          "internalType": "string",
          "name": "_symbol",
          "type": "string"
        },
        {
          "internalType": "uint256",
          "name": "_initialSupply",
          "type": "uint256"
        }
      ],
      "stateMutability": "nonpayable",
      "type": "constructor"
    },
    {
      "anonymous": false,
      "inputs": [
        {
          "indexed": true,
          "internalType": "address",
          "name": "user",
          "type": "address"
        },
        {
          "indexed": false,
          "internalType": "uint256",
          "name": "amount",
          "type": "uint256"
        },
        {
          "indexed": false,
          "internalType": "uint256",
          "name": "index",
          "type": "uint256"
        },
        {
          "indexed": false,
          "internalType": "uint256",
          "name": "timestamp",
          "type": "uint256"
        }
      ],
      "name": "Staked",
      "type": "event"
    },
    {
      "anonymous": false,
      "inputs": [
        {
          "indexed": true,
          "internalType": "address",
          "name": "from",
          "type": "address"
        },
        {
          "indexed": true,
          "internalType": "address",
          "name": "to",
          "type": "address"
        },
        {
          "indexed": false,
          "internalType": "uint256",
          "name": "value",
          "type": "uint256"
        }
      ],
      "name": "Transfer",
      "type": "event"
    },
    {
      "inputs": [
        {
          "internalType": "address",
          "name": "",
          "type": "address"
        }
      ],
      "name": "balanceOf",
      "outputs": [
        {
          "internalType": "uint256",
          "name": "",
          "type": "uint256"
        }
      ],
      "stateMutability": "view",
      "type": "function",
      "constant": true
    },
    {
      "inputs": [],
      "name": "decimals",
      "outputs": [
        {
          "internalType": "uint8",
          "name": "",
          "type": "uint8"
        }
      ],
      "stateMutability": "view",
      "type": "function",
      "constant": true
    },
    {
      "inputs": [],
      "name": "name",
      "outputs": [
        {
          "internalType": "string",
          "name": "",
          "type": "string"
        }
      ],
      "stateMutability": "view",
      "type": "function",
      "constant": true
    },
    {
      "inputs": [],
      "name": "owner",
      "outputs": [
        {
          "internalType": "address payable",
          "name": "",
          "type": "address"
        }
      ],
      "stateMutability": "view",
      "type": "function",
      "constant": true
    },
    {
      "inputs": [],
      "name": "symbol",
      "outputs": [
        {
          "internalType": "string",
          "name": "",
          "type": "string"
        }
      ],
      "stateMutability": "view",
      "type": "function",
      "constant": true
    },
    {
      "inputs": [],
      "name": "totalSupply",
      "outputs": [
        {
          "internalType": "uint256",
          "name": "",
          "type": "uint256"
        }
      ],
      "stateMutability": "view",
      "type": "function",
      "constant": true
    },
    {
      "inputs": [
        {
          "internalType": "address",
          "name": "_account",
          "type": "address"
        },
        {
          "internalType": "uint256",
          "name": "_amount",
          "type": "uint256"
        }
      ],
      "name": "burn",
      "outputs": [
        {
          "internalType": "bool",
          "name": "",
          "type": "bool"
        }
      ],
      "stateMutability": "nonpayable",
      "type": "function"
    },
    {
      "inputs": [
        {
          "internalType": "address",
          "name": "_account",
          "type": "address"
        },
        {
          "internalType": "uint256",
          "name": "_amount",
          "type": "uint256"
        }
      ],
      "name": "mint",
      "outputs": [
        {
          "internalType": "bool",
          "name": "",
          "type": "bool"
        }
      ],
      "stateMutability": "nonpayable",
      "type": "function"
    },
    {
      "inputs": [
        {
          "internalType": "address",
          "name": "_to",
          "type": "address"
        },
        {
          "internalType": "uint256",
          "name": "_value",
          "type": "uint256"
        }
      ],
      "name": "transfer",
      "outputs": [
        {
          "internalType": "bool",
          "name": "success",
          "type": "bool"
        }
      ],
      "stateMutability": "nonpayable",
      "type": "function"
    },
    {
      "inputs": [
        {
          "internalType": "uint256",
          "name": "_amount",
          "type": "uint256"
        }
      ],
      "name": "stake",
      "outputs": [],
      "stateMutability": "nonpayable",
      "type": "function"
    }
  ],
  "bytecode": "0x60806040523480156200001157600080fd5b5060405162001c7a38038062001c7a83398181016040528101906200003791906200046c565b60006001816001815401808255809150500390600052602060002090505082600290805190602001906200006d929190620001e4565b50816003908051906020019062000086929190620001e4565b506012600460006101000a81548160ff021916908360ff160217905550670de0b6b3a764000060068190555060065481620000c2919062000535565b60058190555033600760006101000a81548173ffffffffffffffffffffffffffffffffffffffff021916908373ffffffffffffffffffffffffffffffffffffffff16021790555060055460086000600760009054906101000a900473ffffffffffffffffffffffffffffffffffffffff1673ffffffffffffffffffffffffffffffffffffffff1673ffffffffffffffffffffffffffffffffffffffff168152602001908152602001600020819055503373ffffffffffffffffffffffffffffffffffffffff16600073ffffffffffffffffffffffffffffffffffffffff167fddf252ad1be2c89b69c2b068fc378daa952ba7f163c4a11628f55a4df523b3ef600554604051620001d39190620005a7565b60405180910390a350505062000629565b828054620001f290620005f3565b90600052602060002090601f01602090048101928262000216576000855562000262565b82601f106200023157805160ff191683800117855562000262565b8280016001018555821562000262579182015b828111156200026157825182559160200191906001019062000244565b5b50905062000271919062000275565b5090565b5b808211156200029057600081600090555060010162000276565b5090565b6000604051905090565b600080fd5b600080fd5b600080fd5b600080fd5b6000601f19601f8301169050919050565b7f4e487b7100000000000000000000000000000000000000000000000000000000600052604160045260246000fd5b620002fd82620002b2565b810181811067ffffffffffffffff821117156200031f576200031e620002c3565b5b80604052505050565b60006200033462000294565b9050620003428282620002f2565b919050565b600067ffffffffffffffff821115620003655762000364620002c3565b5b6200037082620002b2565b9050602081019050919050565b60005b838110156200039d57808201518184015260208101905062000380565b83811115620003ad576000848401525b50505050565b6000620003ca620003c48462000347565b62000328565b905082815260208101848484011115620003e957620003e8620002ad565b5b620003f68482856200037d565b509392505050565b600082601f830112620004165762000415620002a8565b5b815162000428848260208601620003b3565b91505092915050565b6000819050919050565b620004468162000431565b81146200045257600080fd5b50565b60008151905062000466816200043b565b92915050565b6000806000606084860312156200048857620004876200029e565b5b600084015167ffffffffffffffff811115620004a957620004a8620002a3565b5b620004b786828701620003fe565b935050602084015167ffffffffffffffff811115620004db57620004da620002a3565b5b620004e986828701620003fe565b9250506040620004fc8682870162000455565b9150509250925092565b7f4e487b7100000000000000000000000000000000000000000000000000000000600052601160045260246000fd5b6000620005428262000431565b91506200054f8362000431565b9250817fffffffffffffffffffffffffffffffffffffffffffffffffffffffffffffffff04831182151516156200058b576200058a62000506565b5b828202905092915050565b620005a18162000431565b82525050565b6000602082019050620005be600083018462000596565b92915050565b7f4e487b7100000000000000000000000000000000000000000000000000000000600052602260045260246000fd5b600060028204905060018216806200060c57607f821691505b60208210811415620006235762000622620005c4565b5b50919050565b61164180620006396000396000f3fe608060405234801561001057600080fd5b50600436106100bb576000357c0100000000000000000000000000000000000000000000000000000000900480638da5cb5b116100835780638da5cb5b1461017a57806395d89b41146101985780639dc29fac146101b6578063a694fc3a146101e6578063a9059cbb14610202576100bb565b806306fdde03146100c057806318160ddd146100de578063313ce567146100fc57806340c10f191461011a57806370a082311461014a575b600080fd5b6100c8610232565b6040516100d59190610e5d565b60405180910390f35b6100e66102c0565b6040516100f39190610e98565b60405180910390f35b6101046102c6565b6040516101119190610ecf565b60405180910390f35b610134600480360381019061012f9190610f79565b6102d9565b6040516101419190610fd4565b60405180910390f35b610164600480360381019061015f9190610fef565b6102ef565b6040516101719190610e98565b60405180910390f35b610182610307565b60405161018f919061103d565b60405180910390f35b6101a061032d565b6040516101ad9190610e5d565b60405180910390f35b6101d060048036038101906101cb9190610f79565b6103bb565b6040516101dd9190610fd4565b60405180910390f35b61020060048036038101906101fb9190611058565b6103d1565b005b61021c60048036038101906102179190610f79565b610468565b6040516102299190610fd4565b60405180910390f35b6002805461023f906110b4565b80601f016020809104026020016040519081016040528092919081815260200182805461026b906110b4565b80156102b85780601f1061028d576101008083540402835291602001916102b8565b820191906000526020600020905b81548152906001019060200180831161029b57829003601f168201915b505050505081565b60055481565b600460009054906101000a900460ff1681565b60006102e583836106b9565b6001905092915050565b60086020528060005260406000206000915090505481565b600760009054906101000a900473ffffffffffffffffffffffffffffffffffffffff1681565b6003805461033a906110b4565b80601f0160208091040260200160405190810160405280929190818152602001828054610366906110b4565b80156103b35780601f10610388576101008083540402835291602001916103b3565b820191906000526020600020905b81548152906001019060200180831161039657829003601f168201915b505050505081565b60006103c783836108b9565b6001905092915050565b600860003373ffffffffffffffffffffffffffffffffffffffff1673ffffffffffffffffffffffffffffffffffffffff168152602001908152602001600020548110610452576040517f08c379a000000000000000000000000000000000000000000000000000000000815260040161044990611158565b60405180910390fd5b61045b81610b0a565b61046533826108b9565b50565b60008073ffffffffffffffffffffffffffffffffffffffff168373ffffffffffffffffffffffffffffffffffffffff1614156104d9576040517f08c379a00000000000000000000000000000000000000000000000000000000081526004016104d0906111c4565b60405180910390fd5b600082101561051d576040517f08c379a000000000000000000000000000000000000000000000000000000000815260040161051490611256565b60405180910390fd5b81600860003373ffffffffffffffffffffffffffffffffffffffff1673ffffffffffffffffffffffffffffffffffffffff168152602001908152602001600020541161059e576040517f08c379a0000000000000000000000000000000000000000000000000000000008152600401610595906112c2565b60405180910390fd5b81600860003373ffffffffffffffffffffffffffffffffffffffff1673ffffffffffffffffffffffffffffffffffffffff16815260200190815260200160002060008282546105ed9190611311565b9250508190555081600860008573ffffffffffffffffffffffffffffffffffffffff1673ffffffffffffffffffffffffffffffffffffffff16815260200190815260200160002060008282546106439190611345565b925050819055508273ffffffffffffffffffffffffffffffffffffffff163373ffffffffffffffffffffffffffffffffffffffff167fddf252ad1be2c89b69c2b068fc378daa952ba7f163c4a11628f55a4df523b3ef846040516106a79190610e98565b60405180910390a36001905092915050565b600073ffffffffffffffffffffffffffffffffffffffff168273ffffffffffffffffffffffffffffffffffffffff161415610729576040517f08c379a0000000000000000000000000000000000000000000000000000000008152600401610720906113e7565b60405180910390fd5b600760009054906101000a900473ffffffffffffffffffffffffffffffffffffffff1673ffffffffffffffffffffffffffffffffffffffff168273ffffffffffffffffffffffffffffffffffffffff16146107b9576040517f08c379a00000000000000000000000000000000000000000000000000000000081526004016107b090611453565b60405180910390fd5b600654816107c79190611473565b600560008282546107d89190611345565b92505081905550600654816107ed9190611473565b600860008473ffffffffffffffffffffffffffffffffffffffff1673ffffffffffffffffffffffffffffffffffffffff168152602001908152602001600020600082825461083b9190611345565b925050819055508173ffffffffffffffffffffffffffffffffffffffff16600073ffffffffffffffffffffffffffffffffffffffff167fddf252ad1be2c89b69c2b068fc378daa952ba7f163c4a11628f55a4df523b3ef600654846108a09190611473565b6040516108ad9190610e98565b60405180910390a35050565b600073ffffffffffffffffffffffffffffffffffffffff168273ffffffffffffffffffffffffffffffffffffffff161415610929576040517f08c379a0000000000000000000000000000000000000000000000000000000008152600401610920906113e7565b60405180910390fd5b600760009054906101000a900473ffffffffffffffffffffffffffffffffffffffff1673ffffffffffffffffffffffffffffffffffffffff168273ffffffffffffffffffffffffffffffffffffffff16146109b9576040517f08c379a00000000000000000000000000000000000000000000000000000000081526004016109b090611453565b60405180910390fd5b600654816109c79190611473565b60055411610a0a576040517f08c379a0000000000000000000000000000000000000000000000000000000008152600401610a0190611519565b60405180910390fd5b60065481610a189190611473565b60056000828254610a299190611311565b9250508190555060065481610a3e9190611473565b600860008473ffffffffffffffffffffffffffffffffffffffff1673ffffffffffffffffffffffffffffffffffffffff1681526020019081526020016000206000828254610a8c9190611311565b92505081905550600073ffffffffffffffffffffffffffffffffffffffff168273ffffffffffffffffffffffffffffffffffffffff167fddf252ad1be2c89b69c2b068fc378daa952ba7f163c4a11628f55a4df523b3ef60065484610af19190611473565b604051610afe9190610e98565b60405180910390a35050565b60008111610b4d576040517f08c379a0000000000000000000000000000000000000000000000000000000008152600401610b4490611585565b60405180910390fd5b6000600160003373ffffffffffffffffffffffffffffffffffffffff1673ffffffffffffffffffffffffffffffffffffffff16815260200190815260200160002054905060004290506000821415610bab57610ba833610cde565b91505b60008281548110610bbf57610bbe6115a5565b5b906000526020600020906002020160010160405180606001604052803373ffffffffffffffffffffffffffffffffffffffff16815260200185815260200183815250908060018154018082558091505060019003906000526020600020906003020160009091909190915060008201518160000160006101000a81548173ffffffffffffffffffffffffffffffffffffffff021916908373ffffffffffffffffffffffffffffffffffffffff160217905550602082015181600101556040820151816002015550503373ffffffffffffffffffffffffffffffffffffffff167fb4caaf29adda3eefee3ad552a8e85058589bf834c7466cae4ee58787f70589ed848484604051610cd1939291906115d4565b60405180910390a2505050565b6000806001816001815401808255809150500390600052602060002090505060006001600080549050610d119190611311565b90508260008281548110610d2857610d276115a5565b5b906000526020600020906002020160000160006101000a81548173ffffffffffffffffffffffffffffffffffffffff021916908373ffffffffffffffffffffffffffffffffffffffff16021790555080600160008573ffffffffffffffffffffffffffffffffffffffff1673ffffffffffffffffffffffffffffffffffffffff1681526020019081526020016000208190555080915050919050565b600081519050919050565b600082825260208201905092915050565b60005b83811015610dfe578082015181840152602081019050610de3565b83811115610e0d576000848401525b50505050565b6000601f19601f8301169050919050565b6000610e2f82610dc4565b610e398185610dcf565b9350610e49818560208601610de0565b610e5281610e13565b840191505092915050565b60006020820190508181036000830152610e778184610e24565b905092915050565b6000819050919050565b610e9281610e7f565b82525050565b6000602082019050610ead6000830184610e89565b92915050565b600060ff82169050919050565b610ec981610eb3565b82525050565b6000602082019050610ee46000830184610ec0565b92915050565b600080fd5b600073ffffffffffffffffffffffffffffffffffffffff82169050919050565b6000610f1a82610eef565b9050919050565b610f2a81610f0f565b8114610f3557600080fd5b50565b600081359050610f4781610f21565b92915050565b610f5681610e7f565b8114610f6157600080fd5b50565b600081359050610f7381610f4d565b92915050565b60008060408385031215610f9057610f8f610eea565b5b6000610f9e85828601610f38565b9250506020610faf85828601610f64565b9150509250929050565b60008115159050919050565b610fce81610fb9565b82525050565b6000602082019050610fe96000830184610fc5565b92915050565b60006020828403121561100557611004610eea565b5b600061101384828501610f38565b91505092915050565b600061102782610eef565b9050919050565b6110378161101c565b82525050565b6000602082019050611052600083018461102e565b92915050565b60006020828403121561106e5761106d610eea565b5b600061107c84828501610f64565b91505092915050565b7f4e487b7100000000000000000000000000000000000000000000000000000000600052602260045260246000fd5b600060028204905060018216806110cc57607f821691505b602082108114156110e0576110df611085565b5b50919050565b7f446576546f6b656e3a2043616e6e6f74207374616b65206d6f7265207468616e60008201527f20796f75206f776e000000000000000000000000000000000000000000000000602082015250565b6000611142602883610dcf565b915061114d826110e6565b604082019050919050565b6000602082019050818103600083015261117181611135565b9050919050565b7f5265636569766572206164647265737320696e76616c69640000000000000000600082015250565b60006111ae601883610dcf565b91506111b982611178565b602082019050919050565b600060208201905081810360008301526111dd816111a1565b9050919050565b7f56616c7565206d7573742062652067726561746572206f7220657175616c207460008201527f6f20300000000000000000000000000000000000000000000000000000000000602082015250565b6000611240602383610dcf565b915061124b826111e4565b604082019050919050565b6000602082019050818103600083015261126f81611233565b9050919050565b7f4e6f7420656e6f7567682062616c616e63650000000000000000000000000000600082015250565b60006112ac601283610dcf565b91506112b782611276565b602082019050919050565b600060208201905081810360008301526112db8161129f565b9050919050565b7f4e487b7100000000000000000000000000000000000000000000000000000000600052601160045260246000fd5b600061131c82610e7f565b915061132783610e7f565b92508282101561133a576113396112e2565b5b828203905092915050565b600061135082610e7f565b915061135b83610e7f565b9250827fffffffffffffffffffffffffffffffffffffffffffffffffffffffffffffffff038211156113905761138f6112e2565b5b828201905092915050565b7f496e76616c6964206275726e20726563697069656e7400000000000000000000600082015250565b60006113d1601683610dcf565b91506113dc8261139b565b602082019050919050565b60006020820190508181036000830152611400816113c4565b9050919050565b7f4f7065726174696f6e20756e617574686f726973656400000000000000000000600082015250565b600061143d601683610dcf565b915061144882611407565b602082019050919050565b6000602082019050818103600083015261146c81611430565b9050919050565b600061147e82610e7f565b915061148983610e7f565b9250817fffffffffffffffffffffffffffffffffffffffffffffffffffffffffffffffff04831182151516156114c2576114c16112e2565b5b828202905092915050565b7f4275726e20616d6f756e7420657863656564732062616c616e63650000000000600082015250565b6000611503601b83610dcf565b915061150e826114cd565b602082019050919050565b60006020820190508181036000830152611532816114f6565b9050919050565b7f43616e6e6f74207374616b65206e6f7468696e67000000000000000000000000600082015250565b600061156f601483610dcf565b915061157a82611539565b602082019050919050565b6000602082019050818103600083015261159e81611562565b9050919050565b7f4e487b7100000000000000000000000000000000000000000000000000000000600052603260045260246000fd5b60006060820190506115e96000830186610e89565b6115f66020830185610e89565b6116036040830184610e89565b94935050505056fea26469706673582212206f293f58b4b6fccc91fa12f103db71db46d73fd54855ee29bdf5365078b4930e64736f6c634300080c0033",
  "immutableReferences": {},
  "source": "// SPDX-License-Identifier: MIT\r\npragma solidity >=0.4.22 <0.9.0;\r\n\r\nimport \"./Stakeable.sol\";\r\n\r\ncontract Token is Stakeable {\r\n    string public name;\r\n    string public symbol;\r\n    uint8 public decimals;\r\n    uint256 public totalSupply;\r\n    uint256 _wei; // 1 Ether = 1000000000000000000 Wei\r\n    address payable public owner;\r\n\r\n    mapping(address => uint256) public balanceOf;\r\n\r\n    event Transfer(address indexed from, address indexed to, uint256 value);\r\n\r\n    constructor(\r\n        string memory _name,\r\n        string memory _symbol,\r\n        uint256 _initialSupply\r\n    ) {\r\n        name = _name;\r\n        symbol = _symbol;\r\n        decimals = 18;\r\n        _wei = 1000000000000000000;\r\n        totalSupply = _initialSupply * _wei;\r\n\r\n        owner = payable(msg.sender);\r\n\r\n        balanceOf[owner] = totalSupply;\r\n\r\n        emit Transfer(address(0), msg.sender, totalSupply);\r\n    }\r\n\r\n    function _mint(address _account, uint256 _amount) internal {\r\n        require(_account != address(0), \"Invalid burn recipient\");\r\n        require(_account == owner, \"Operation unauthorised\");\r\n\r\n        totalSupply += (_amount * _wei);\r\n        balanceOf[_account] += (_amount * _wei);\r\n\r\n        emit Transfer(address(0), _account, _amount * _wei);\r\n    }\r\n\r\n    function _burn(address _account, uint256 _amount) internal {\r\n        require(_account != address(0), \"Invalid burn recipient\");\r\n        require(_account == owner, \"Operation unauthorised\");\r\n        require(totalSupply > _amount * _wei, \"Burn amount exceeds balance\");\r\n\r\n        totalSupply -= (_amount * _wei);\r\n        balanceOf[_account] -= (_amount * _wei);\r\n\r\n        emit Transfer(_account, address(0), _amount * _wei);\r\n    }\r\n\r\n    function burn(address _account, uint256 _amount) public returns (bool) {\r\n        _burn(_account, _amount);\r\n        return true;\r\n    }\r\n\r\n    function mint(address _account, uint256 _amount) public returns (bool) {\r\n        _mint(_account, _amount);\r\n        return true;\r\n    }\r\n\r\n    function transfer(address _to, uint256 _value)\r\n        public\r\n        returns (bool success)\r\n    {\r\n        require(_to != address(0), \"Receiver address invalid\");\r\n        require(_value >= 0, \"Value must be greater or equal to 0\");\r\n        require(balanceOf[msg.sender] > _value, \"Not enough balance\");\r\n\r\n        balanceOf[msg.sender] -= (_value);\r\n        balanceOf[_to] += (_value);\r\n\r\n        emit Transfer(msg.sender, _to, _value);\r\n        return true;\r\n    }\r\n\r\n    function stake(uint256 _amount) public {\r\n        require(\r\n            _amount < balanceOf[msg.sender],\r\n            \"DevToken: Cannot stake more than you own\"\r\n        );\r\n\r\n        _stake(_amount);\r\n\r\n        _burn(msg.sender, _amount);\r\n    }\r\n}\r\n",
  "sourcePath": "D:\\Delete Workspaces\\Flutter\\flutter_token\\contracts\\Token.sol",
  "compiler": {
    "name": "solc",
    "version": "0.8.12+commit.f00d7308.Emscripten.clang"
  },
  "schemaVersion": "3.4.6",
  "updatedAt": "2022-04-11T07:50:42.435Z",
  "networkType": "ethereum",
  "devdoc": {
    "kind": "dev",
    "methods": {},
    "version": 1
  },
  "userdoc": {
    "kind": "user",
    "methods": {},
    "version": 1
  }
}