{
  "contractName": "Token",
  "abi": [
    {
      "inputs": [
        {
          "internalType": "string",
          "name": "_name",
          "type": "string"
        },
        {
          "internalType": "string",
          "name": "_symbol",
          "type": "string"
        },
        {
          "internalType": "uint256",
          "name": "_initialSupply",
          "type": "uint256"
        }
      ],
      "stateMutability": "nonpayable",
      "type": "constructor"
    },
    {
      "anonymous": false,
      "inputs": [
        {
          "indexed": true,
          "internalType": "address",
          "name": "user",
          "type": "address"
        },
        {
          "indexed": false,
          "internalType": "uint256",
          "name": "amount",
          "type": "uint256"
        },
        {
          "indexed": false,
          "internalType": "uint256",
          "name": "index",
          "type": "uint256"
        },
        {
          "indexed": false,
          "internalType": "uint256",
          "name": "timestamp",
          "type": "uint256"
        }
      ],
      "name": "Staked",
      "type": "event"
    },
    {
      "anonymous": false,
      "inputs": [
        {
          "indexed": true,
          "internalType": "address",
          "name": "from",
          "type": "address"
        },
        {
          "indexed": true,
          "internalType": "address",
          "name": "to",
          "type": "address"
        },
        {
          "indexed": false,
          "internalType": "uint256",
          "name": "value",
          "type": "uint256"
        }
      ],
      "name": "Transfer",
      "type": "event"
    },
    {
      "inputs": [
        {
          "internalType": "address",
          "name": "",
          "type": "address"
        }
      ],
      "name": "balanceOf",
      "outputs": [
        {
          "internalType": "uint256",
          "name": "",
          "type": "uint256"
        }
      ],
      "stateMutability": "view",
      "type": "function",
      "constant": true
    },
    {
      "inputs": [],
      "name": "decimals",
      "outputs": [
        {
          "internalType": "uint8",
          "name": "",
          "type": "uint8"
        }
      ],
      "stateMutability": "view",
      "type": "function",
      "constant": true
    },
    {
      "inputs": [
        {
          "internalType": "address",
          "name": "_staker",
          "type": "address"
        }
      ],
      "name": "hasStake",
      "outputs": [
        {
          "components": [
            {
              "internalType": "uint256",
              "name": "totalAmount",
              "type": "uint256"
            },
            {
              "components": [
                {
                  "internalType": "address",
                  "name": "user",
                  "type": "address"
                },
                {
                  "internalType": "uint256",
                  "name": "amount",
                  "type": "uint256"
                },
                {
                  "internalType": "uint256",
                  "name": "since",
                  "type": "uint256"
                },
                {
                  "internalType": "uint256",
                  "name": "claimable",
                  "type": "uint256"
                }
              ],
              "internalType": "struct Stakeable.Stake[]",
              "name": "stakes",
              "type": "tuple[]"
            }
          ],
          "internalType": "struct Stakeable.StakingSummary",
          "name": "",
          "type": "tuple"
        }
      ],
      "stateMutability": "view",
      "type": "function",
      "constant": true
    },
    {
      "inputs": [],
      "name": "name",
      "outputs": [
        {
          "internalType": "string",
          "name": "",
          "type": "string"
        }
      ],
      "stateMutability": "view",
      "type": "function",
      "constant": true
    },
    {
      "inputs": [],
      "name": "owner",
      "outputs": [
        {
          "internalType": "address payable",
          "name": "",
          "type": "address"
        }
      ],
      "stateMutability": "view",
      "type": "function",
      "constant": true
    },
    {
      "inputs": [],
      "name": "symbol",
      "outputs": [
        {
          "internalType": "string",
          "name": "",
          "type": "string"
        }
      ],
      "stateMutability": "view",
      "type": "function",
      "constant": true
    },
    {
      "inputs": [],
      "name": "totalSupply",
      "outputs": [
        {
          "internalType": "uint256",
          "name": "",
          "type": "uint256"
        }
      ],
      "stateMutability": "view",
      "type": "function",
      "constant": true
    },
    {
      "inputs": [
        {
          "internalType": "address",
          "name": "_account",
          "type": "address"
        },
        {
          "internalType": "uint256",
          "name": "_amount",
          "type": "uint256"
        }
      ],
      "name": "burn",
      "outputs": [
        {
          "internalType": "bool",
          "name": "",
          "type": "bool"
        }
      ],
      "stateMutability": "nonpayable",
      "type": "function"
    },
    {
      "inputs": [
        {
          "internalType": "address",
          "name": "_account",
          "type": "address"
        },
        {
          "internalType": "uint256",
          "name": "_amount",
          "type": "uint256"
        }
      ],
      "name": "mint",
      "outputs": [
        {
          "internalType": "bool",
          "name": "",
          "type": "bool"
        }
      ],
      "stateMutability": "nonpayable",
      "type": "function"
    },
    {
      "inputs": [
        {
          "internalType": "address",
          "name": "_to",
          "type": "address"
        },
        {
          "internalType": "uint256",
          "name": "_value",
          "type": "uint256"
        }
      ],
      "name": "transfer",
      "outputs": [
        {
          "internalType": "bool",
          "name": "success",
          "type": "bool"
        }
      ],
      "stateMutability": "nonpayable",
      "type": "function"
    },
    {
      "inputs": [
        {
          "internalType": "uint256",
          "name": "_amount",
          "type": "uint256"
        }
      ],
      "name": "stake",
      "outputs": [],
      "stateMutability": "nonpayable",
      "type": "function"
    },
    {
      "inputs": [
        {
          "internalType": "uint256",
          "name": "_amount",
          "type": "uint256"
        },
        {
          "internalType": "uint256",
          "name": "_stakeIndex",
          "type": "uint256"
        }
      ],
      "name": "withdrawStake",
      "outputs": [],
      "stateMutability": "nonpayable",
      "type": "function"
    }
  ],
  "bytecode": "0x60806040526103e86002553480156200001757600080fd5b50604051620024933803806200249383398181016040528101906200003d919062000472565b600060018160018154018082558091505003906000526020600020905050826003908051906020019062000073929190620001ea565b5081600490805190602001906200008c929190620001ea565b506012600560006101000a81548160ff021916908360ff160217905550670de0b6b3a764000060078190555060075481620000c891906200053b565b60068190555033600860006101000a81548173ffffffffffffffffffffffffffffffffffffffff021916908373ffffffffffffffffffffffffffffffffffffffff16021790555060065460096000600860009054906101000a900473ffffffffffffffffffffffffffffffffffffffff1673ffffffffffffffffffffffffffffffffffffffff1673ffffffffffffffffffffffffffffffffffffffff168152602001908152602001600020819055503373ffffffffffffffffffffffffffffffffffffffff16600073ffffffffffffffffffffffffffffffffffffffff167fddf252ad1be2c89b69c2b068fc378daa952ba7f163c4a11628f55a4df523b3ef600654604051620001d99190620005ad565b60405180910390a35050506200062f565b828054620001f890620005f9565b90600052602060002090601f0160209004810192826200021c576000855562000268565b82601f106200023757805160ff191683800117855562000268565b8280016001018555821562000268579182015b82811115620002675782518255916020019190600101906200024a565b5b5090506200027791906200027b565b5090565b5b80821115620002965760008160009055506001016200027c565b5090565b6000604051905090565b600080fd5b600080fd5b600080fd5b600080fd5b6000601f19601f8301169050919050565b7f4e487b7100000000000000000000000000000000000000000000000000000000600052604160045260246000fd5b6200030382620002b8565b810181811067ffffffffffffffff82111715620003255762000324620002c9565b5b80604052505050565b60006200033a6200029a565b9050620003488282620002f8565b919050565b600067ffffffffffffffff8211156200036b576200036a620002c9565b5b6200037682620002b8565b9050602081019050919050565b60005b83811015620003a357808201518184015260208101905062000386565b83811115620003b3576000848401525b50505050565b6000620003d0620003ca846200034d565b6200032e565b905082815260208101848484011115620003ef57620003ee620002b3565b5b620003fc84828562000383565b509392505050565b600082601f8301126200041c576200041b620002ae565b5b81516200042e848260208601620003b9565b91505092915050565b6000819050919050565b6200044c8162000437565b81146200045857600080fd5b50565b6000815190506200046c8162000441565b92915050565b6000806000606084860312156200048e576200048d620002a4565b5b600084015167ffffffffffffffff811115620004af57620004ae620002a9565b5b620004bd8682870162000404565b935050602084015167ffffffffffffffff811115620004e157620004e0620002a9565b5b620004ef8682870162000404565b925050604062000502868287016200045b565b9150509250925092565b7f4e487b7100000000000000000000000000000000000000000000000000000000600052601160045260246000fd5b6000620005488262000437565b9150620005558362000437565b9250817fffffffffffffffffffffffffffffffffffffffffffffffffffffffffffffffff04831182151516156200059157620005906200050c565b5b828202905092915050565b620005a78162000437565b82525050565b6000602082019050620005c460008301846200059c565b92915050565b7f4e487b7100000000000000000000000000000000000000000000000000000000600052602260045260246000fd5b600060028204905060018216806200061257607f821691505b60208210811415620006295762000628620005ca565b5b50919050565b611e54806200063f6000396000f3fe608060405234801561001057600080fd5b50600436106100d1576000357c01000000000000000000000000000000000000000000000000000000009004806395d89b411161008e57806395d89b41146101ae5780639dc29fac146101cc578063a694fc3a146101fc578063a9059cbb14610218578063e73e14bf14610248578063f1fdf46914610278576100d1565b806306fdde03146100d657806318160ddd146100f4578063313ce5671461011257806340c10f191461013057806370a08231146101605780638da5cb5b14610190575b600080fd5b6100de610294565b6040516100eb91906113c0565b60405180910390f35b6100fc610322565b60405161010991906113fb565b60405180910390f35b61011a610328565b6040516101279190611432565b60405180910390f35b61014a600480360381019061014591906114dc565b61033b565b6040516101579190611537565b60405180910390f35b61017a60048036038101906101759190611552565b610351565b60405161018791906113fb565b60405180910390f35b610198610369565b6040516101a591906115a0565b60405180910390f35b6101b661038f565b6040516101c391906113c0565b60405180910390f35b6101e660048036038101906101e191906114dc565b61041d565b6040516101f39190611537565b60405180910390f35b610216600480360381019061021191906115bb565b610433565b005b610232600480360381019061022d91906114dc565b6104e4565b60405161023f9190611537565b60405180910390f35b610262600480360381019061025d9190611552565b610734565b60405161026f9190611747565b60405180910390f35b610292600480360381019061028d9190611769565b610940565b005b600380546102a1906117d8565b80601f01602080910402602001604051908101604052809291908181526020018280546102cd906117d8565b801561031a5780601f106102ef5761010080835404028352916020019161031a565b820191906000526020600020905b8154815290600101906020018083116102fd57829003601f168201915b505050505081565b60065481565b600560009054906101000a900460ff1681565b60006103478383610977565b6001905092915050565b60096020528060005260406000206000915090505481565b600860009054906101000a900473ffffffffffffffffffffffffffffffffffffffff1681565b6004805461039c906117d8565b80601f01602080910402602001604051908101604052809291908181526020018280546103c8906117d8565b80156104155780601f106103ea57610100808354040283529160200191610415565b820191906000526020600020905b8154815290600101906020018083116103f857829003601f168201915b505050505081565b60006104298383610b77565b6001905092915050565b600960003373ffffffffffffffffffffffffffffffffffffffff1673ffffffffffffffffffffffffffffffffffffffff16815260200190815260200160002054600754826104819190611839565b106104c1576040517f08c379a00000000000000000000000000000000000000000000000000000000081526004016104b8906118df565b60405180910390fd5b6104d7600754826104d29190611839565b610d38565b6104e13382610b77565b50565b60008073ffffffffffffffffffffffffffffffffffffffff168373ffffffffffffffffffffffffffffffffffffffff161415610555576040517f08c379a000000000000000000000000000000000000000000000000000000000815260040161054c9061194b565b60405180910390fd5b60008211610598576040517f08c379a000000000000000000000000000000000000000000000000000000000815260040161058f906119b7565b60405180910390fd5b81600960003373ffffffffffffffffffffffffffffffffffffffff1673ffffffffffffffffffffffffffffffffffffffff1681526020019081526020016000205411610619576040517f08c379a000000000000000000000000000000000000000000000000000000000815260040161061090611a23565b60405180910390fd5b81600960003373ffffffffffffffffffffffffffffffffffffffff1673ffffffffffffffffffffffffffffffffffffffff16815260200190815260200160002060008282546106689190611a43565b9250508190555081600960008573ffffffffffffffffffffffffffffffffffffffff1673ffffffffffffffffffffffffffffffffffffffff16815260200190815260200160002060008282546106be9190611a77565b925050819055508273ffffffffffffffffffffffffffffffffffffffff163373ffffffffffffffffffffffffffffffffffffffff167fddf252ad1be2c89b69c2b068fc378daa952ba7f163c4a11628f55a4df523b3ef8460405161072291906113fb565b60405180910390a36001905092915050565b61073c61130d565b6000806040518060400160405280600081526020016000600160008873ffffffffffffffffffffffffffffffffffffffff1673ffffffffffffffffffffffffffffffffffffffff16815260200190815260200160002054815481106107a4576107a3611acd565b5b9060005260206000209060020201600101805480602002602001604051908101604052809291908181526020016000905b8282101561087b57838290600052602060002090600402016040518060800160405290816000820160009054906101000a900473ffffffffffffffffffffffffffffffffffffffff1673ffffffffffffffffffffffffffffffffffffffff1673ffffffffffffffffffffffffffffffffffffffff1681526020016001820154815260200160028201548152602001600382015481525050815260200190600101906107d5565b50505050815250905060005b81602001515181101561092b5760006108bd836020015183815181106108b0576108af611acd565b5b6020026020010151610f1d565b905080836020015183815181106108d7576108d6611acd565b5b60200260200101516060018181525050826020015182815181106108fe576108fd611acd565b5b602002602001015160200151846109159190611a77565b935050808061092390611afc565b915050610887565b50818160000181815250508092505050919050565b600060075461095c600754856109569190611839565b84610f5f565b6109669190611b74565b90506109723382610977565b505050565b600073ffffffffffffffffffffffffffffffffffffffff168273ffffffffffffffffffffffffffffffffffffffff1614156109e7576040517f08c379a00000000000000000000000000000000000000000000000000000000081526004016109de90611bf1565b60405180910390fd5b3373ffffffffffffffffffffffffffffffffffffffff16600860009054906101000a900473ffffffffffffffffffffffffffffffffffffffff1673ffffffffffffffffffffffffffffffffffffffff1614610a77576040517f08c379a0000000000000000000000000000000000000000000000000000000008152600401610a6e90611c5d565b60405180910390fd5b60075481610a859190611839565b60066000828254610a969190611a77565b9250508190555060075481610aab9190611839565b600960008473ffffffffffffffffffffffffffffffffffffffff1673ffffffffffffffffffffffffffffffffffffffff1681526020019081526020016000206000828254610af99190611a77565b925050819055508173ffffffffffffffffffffffffffffffffffffffff16600073ffffffffffffffffffffffffffffffffffffffff167fddf252ad1be2c89b69c2b068fc378daa952ba7f163c4a11628f55a4df523b3ef60075484610b5e9190611839565b604051610b6b91906113fb565b60405180910390a35050565b600073ffffffffffffffffffffffffffffffffffffffff168273ffffffffffffffffffffffffffffffffffffffff161415610be7576040517f08c379a0000000000000000000000000000000000000000000000000000000008152600401610bde90611bf1565b60405180910390fd5b60075481610bf59190611839565b60065411610c38576040517f08c379a0000000000000000000000000000000000000000000000000000000008152600401610c2f90611cc9565b60405180910390fd5b60075481610c469190611839565b60066000828254610c579190611a43565b9250508190555060075481610c6c9190611839565b600960008473ffffffffffffffffffffffffffffffffffffffff1673ffffffffffffffffffffffffffffffffffffffff1681526020019081526020016000206000828254610cba9190611a43565b92505081905550600073ffffffffffffffffffffffffffffffffffffffff168273ffffffffffffffffffffffffffffffffffffffff167fddf252ad1be2c89b69c2b068fc378daa952ba7f163c4a11628f55a4df523b3ef60075484610d1f9190611839565b604051610d2c91906113fb565b60405180910390a35050565b60008111610d7b576040517f08c379a0000000000000000000000000000000000000000000000000000000008152600401610d7290611d35565b60405180910390fd5b6000600160003373ffffffffffffffffffffffffffffffffffffffff1673ffffffffffffffffffffffffffffffffffffffff16815260200190815260200160002054905060004290506000821415610dd957610dd633611227565b91505b60008281548110610ded57610dec611acd565b5b906000526020600020906002020160010160405180608001604052803373ffffffffffffffffffffffffffffffffffffffff1681526020018581526020018381526020016000815250908060018154018082558091505060019003906000526020600020906004020160009091909190915060008201518160000160006101000a81548173ffffffffffffffffffffffffffffffffffffffff021916908373ffffffffffffffffffffffffffffffffffffffff16021790555060208201518160010155604082015181600201556060820151816003015550503373ffffffffffffffffffffffffffffffffffffffff167fb4caaf29adda3eefee3ad552a8e85058589bf834c7466cae4ee58787f70589ed848484604051610f1093929190611d55565b60405180910390a2505050565b60006002548260200151610e10846040015142610f3a9190611a43565b610f449190611b74565b610f4e9190611839565b610f589190611b74565b9050919050565b600080600160003373ffffffffffffffffffffffffffffffffffffffff1673ffffffffffffffffffffffffffffffffffffffff1681526020019081526020016000205490506000808281548110610fb957610fb8611acd565b5b90600052602060002090600202016001018481548110610fdc57610fdb611acd565b5b90600052602060002090600402016040518060800160405290816000820160009054906101000a900473ffffffffffffffffffffffffffffffffffffffff1673ffffffffffffffffffffffffffffffffffffffff1673ffffffffffffffffffffffffffffffffffffffff1681526020016001820154815260200160028201548152602001600382015481525050905084816020015110156110b2576040517f08c379a00000000000000000000000000000000000000000000000000000000081526004016110a990611dfe565b60405180910390fd5b60006110bd82610f1d565b905085826020018181516110d19190611a43565b9150818152505060008260200151141561117157600083815481106110f9576110f8611acd565b5b9060005260206000209060020201600101858154811061111c5761111b611acd565b5b9060005260206000209060040201600080820160006101000a81549073ffffffffffffffffffffffffffffffffffffffff02191690556001820160009055600282016000905560038201600090555050611210565b81602001516000848154811061118a57611189611acd565b5b906000526020600020906002020160010186815481106111ad576111ac611acd565b5b90600052602060002090600402016001018190555042600084815481106111d7576111d6611acd565b5b906000526020600020906002020160010186815481106111fa576111f9611acd565b5b9060005260206000209060040201600201819055505b808661121c9190611a77565b935050505092915050565b600080600181600181540180825580915050039060005260206000209050506000600160008054905061125a9190611a43565b9050826000828154811061127157611270611acd565b5b906000526020600020906002020160000160006101000a81548173ffffffffffffffffffffffffffffffffffffffff021916908373ffffffffffffffffffffffffffffffffffffffff16021790555080600160008573ffffffffffffffffffffffffffffffffffffffff1673ffffffffffffffffffffffffffffffffffffffff1681526020019081526020016000208190555080915050919050565b604051806040016040528060008152602001606081525090565b600081519050919050565b600082825260208201905092915050565b60005b83811015611361578082015181840152602081019050611346565b83811115611370576000848401525b50505050565b6000601f19601f8301169050919050565b600061139282611327565b61139c8185611332565b93506113ac818560208601611343565b6113b581611376565b840191505092915050565b600060208201905081810360008301526113da8184611387565b905092915050565b6000819050919050565b6113f5816113e2565b82525050565b600060208201905061141060008301846113ec565b92915050565b600060ff82169050919050565b61142c81611416565b82525050565b60006020820190506114476000830184611423565b92915050565b600080fd5b600073ffffffffffffffffffffffffffffffffffffffff82169050919050565b600061147d82611452565b9050919050565b61148d81611472565b811461149857600080fd5b50565b6000813590506114aa81611484565b92915050565b6114b9816113e2565b81146114c457600080fd5b50565b6000813590506114d6816114b0565b92915050565b600080604083850312156114f3576114f261144d565b5b60006115018582860161149b565b9250506020611512858286016114c7565b9150509250929050565b60008115159050919050565b6115318161151c565b82525050565b600060208201905061154c6000830184611528565b92915050565b6000602082840312156115685761156761144d565b5b60006115768482850161149b565b91505092915050565b600061158a82611452565b9050919050565b61159a8161157f565b82525050565b60006020820190506115b56000830184611591565b92915050565b6000602082840312156115d1576115d061144d565b5b60006115df848285016114c7565b91505092915050565b6115f1816113e2565b82525050565b600081519050919050565b600082825260208201905092915050565b6000819050602082019050919050565b61162c81611472565b82525050565b6080820160008201516116486000850182611623565b50602082015161165b60208501826115e8565b50604082015161166e60408501826115e8565b50606082015161168160608501826115e8565b50505050565b60006116938383611632565b60808301905092915050565b6000602082019050919050565b60006116b7826115f7565b6116c18185611602565b93506116cc83611613565b8060005b838110156116fd5781516116e48882611687565b97506116ef8361169f565b9250506001810190506116d0565b5085935050505092915050565b600060408301600083015161172260008601826115e8565b506020830151848203602086015261173a82826116ac565b9150508091505092915050565b60006020820190508181036000830152611761818461170a565b905092915050565b600080604083850312156117805761177f61144d565b5b600061178e858286016114c7565b925050602061179f858286016114c7565b9150509250929050565b7f4e487b7100000000000000000000000000000000000000000000000000000000600052602260045260246000fd5b600060028204905060018216806117f057607f821691505b60208210811415611804576118036117a9565b5b50919050565b7f4e487b7100000000000000000000000000000000000000000000000000000000600052601160045260246000fd5b6000611844826113e2565b915061184f836113e2565b9250817fffffffffffffffffffffffffffffffffffffffffffffffffffffffffffffffff04831182151516156118885761188761180a565b5b828202905092915050565b7f43616e6e6f74207374616b65206d6f7265207468616e20796f75206f776e0000600082015250565b60006118c9601e83611332565b91506118d482611893565b602082019050919050565b600060208201905081810360008301526118f8816118bc565b9050919050565b7f5265636569766572206164647265737320696e76616c69640000000000000000600082015250565b6000611935601883611332565b9150611940826118ff565b602082019050919050565b6000602082019050818103600083015261196481611928565b9050919050565b7f56616c7565206d757374206265206772656174657220746f2030000000000000600082015250565b60006119a1601a83611332565b91506119ac8261196b565b602082019050919050565b600060208201905081810360008301526119d081611994565b9050919050565b7f4e6f7420656e6f7567682062616c616e63650000000000000000000000000000600082015250565b6000611a0d601283611332565b9150611a18826119d7565b602082019050919050565b60006020820190508181036000830152611a3c81611a00565b9050919050565b6000611a4e826113e2565b9150611a59836113e2565b925082821015611a6c57611a6b61180a565b5b828203905092915050565b6000611a82826113e2565b9150611a8d836113e2565b9250827fffffffffffffffffffffffffffffffffffffffffffffffffffffffffffffffff03821115611ac257611ac161180a565b5b828201905092915050565b7f4e487b7100000000000000000000000000000000000000000000000000000000600052603260045260246000fd5b6000611b07826113e2565b91507fffffffffffffffffffffffffffffffffffffffffffffffffffffffffffffffff821415611b3a57611b3961180a565b5b600182019050919050565b7f4e487b7100000000000000000000000000000000000000000000000000000000600052601260045260246000fd5b6000611b7f826113e2565b9150611b8a836113e2565b925082611b9a57611b99611b45565b5b828204905092915050565b7f496e76616c6964206275726e20726563697069656e7400000000000000000000600082015250565b6000611bdb601683611332565b9150611be682611ba5565b602082019050919050565b60006020820190508181036000830152611c0a81611bce565b9050919050565b7f4f7065726174696f6e20756e617574686f726973656400000000000000000000600082015250565b6000611c47601683611332565b9150611c5282611c11565b602082019050919050565b60006020820190508181036000830152611c7681611c3a565b9050919050565b7f4275726e20616d6f756e7420657863656564732062616c616e63650000000000600082015250565b6000611cb3601b83611332565b9150611cbe82611c7d565b602082019050919050565b60006020820190508181036000830152611ce281611ca6565b9050919050565b7f43616e6e6f74207374616b65206e6f7468696e67000000000000000000000000600082015250565b6000611d1f601483611332565b9150611d2a82611ce9565b602082019050919050565b60006020820190508181036000830152611d4e81611d12565b9050919050565b6000606082019050611d6a60008301866113ec565b611d7760208301856113ec565b611d8460408301846113ec565b949350505050565b7f43616e6e6f74207769746864726177206d6f7265207468616e20796f7520686160008201527f7665207374616b65640000000000000000000000000000000000000000000000602082015250565b6000611de8602983611332565b9150611df382611d8c565b604082019050919050565b60006020820190508181036000830152611e1781611ddb565b905091905056fea2646970667358221220f17c295d4013297cc1f078eaf661872313d55ef9c8e42c90f16ef2815d00c92d64736f6c634300080c0033",
  "immutableReferences": {},
  "source": "// SPDX-License-Identifier: MIT\r\npragma solidity >=0.4.22 <0.9.0;\r\n\r\nimport \"./Stakeable.sol\";\r\n\r\ncontract Token is Stakeable {\r\n    string public name;\r\n    string public symbol;\r\n    uint8 public decimals;\r\n    uint256 public totalSupply;\r\n    uint256 _wei; // 1 Ether = 1000000000000000000 Wei\r\n    address payable public owner;\r\n\r\n    mapping(address => uint256) public balanceOf;\r\n\r\n    event Transfer(address indexed from, address indexed to, uint256 value);\r\n\r\n    constructor(\r\n        string memory _name,\r\n        string memory _symbol,\r\n        uint256 _initialSupply\r\n    ) {\r\n        name = _name;\r\n        symbol = _symbol;\r\n        decimals = 18;\r\n        _wei = 1000000000000000000;\r\n        totalSupply = _initialSupply * _wei;\r\n\r\n        owner = payable(msg.sender);\r\n\r\n        balanceOf[owner] = totalSupply;\r\n\r\n        emit Transfer(address(0), msg.sender, totalSupply);\r\n    }\r\n\r\n    function _mint(address _account, uint256 _amount) internal {\r\n        require(_account != address(0), \"Invalid burn recipient\");\r\n        require(owner == msg.sender, \"Operation unauthorised\");\r\n\r\n        totalSupply += (_amount * _wei);\r\n        balanceOf[_account] += (_amount * _wei);\r\n\r\n        emit Transfer(address(0), _account, _amount * _wei);\r\n    }\r\n\r\n    function _burn(address _account, uint256 _amount) internal {\r\n        require(_account != address(0), \"Invalid burn recipient\");\r\n        // require(owner == msg.sender, \"Operation unauthorised\");\r\n        require(totalSupply > _amount * _wei, \"Burn amount exceeds balance\");\r\n\r\n        totalSupply -= (_amount * _wei);\r\n        balanceOf[_account] -= (_amount * _wei);\r\n\r\n        emit Transfer(_account, address(0), _amount * _wei);\r\n    }\r\n\r\n    function burn(address _account, uint256 _amount) public returns (bool) {\r\n        _burn(_account, _amount);\r\n        return true;\r\n    }\r\n\r\n    function mint(address _account, uint256 _amount) public returns (bool) {\r\n        _mint(_account, _amount);\r\n        return true;\r\n    }\r\n\r\n    function transfer(address _to, uint256 _value)\r\n        public\r\n        returns (bool success)\r\n    {\r\n        require(_to != address(0), \"Receiver address invalid\");\r\n        require(_value > 0, \"Value must be greater to 0\");\r\n        require(balanceOf[msg.sender] > _value, \"Not enough balance\");\r\n\r\n        balanceOf[msg.sender] -= (_value);\r\n        balanceOf[_to] += (_value);\r\n\r\n        emit Transfer(msg.sender, _to, _value);\r\n        return true;\r\n    }\r\n\r\n    function stake(uint256 _amount) public {\r\n        require(\r\n            _amount * _wei < balanceOf[msg.sender],\r\n            \"Cannot stake more than you own\"\r\n        );\r\n\r\n        _stake(_amount * _wei);\r\n\r\n        _burn(msg.sender, _amount);\r\n    }\r\n\r\n    function withdrawStake(uint256 _amount, uint256 _stakeIndex) public {\r\n        uint256 amountToMint = _withdrawStake(_amount * _wei, _stakeIndex) /\r\n            _wei;\r\n\r\n        _mint(msg.sender, amountToMint);\r\n    }\r\n}\r\n",
  "sourcePath": "D:\\Delete Workspaces\\Flutter\\flutter_token\\contracts\\Token.sol",
  "compiler": {
    "name": "solc",
    "version": "0.8.12+commit.f00d7308.Emscripten.clang"
  },
  "schemaVersion": "3.4.6",
  "updatedAt": "2022-04-14T06:17:45.456Z",
  "networkType": "ethereum",
  "devdoc": {
    "kind": "dev",
    "methods": {},
    "version": 1
  },
  "userdoc": {
    "kind": "user",
    "methods": {},
    "version": 1
  }
}