{
  "contractName": "Token",
  "abi": [
    {
      "inputs": [
        {
          "internalType": "string",
          "name": "_name",
          "type": "string"
        },
        {
          "internalType": "string",
          "name": "_symbol",
          "type": "string"
        },
        {
          "internalType": "uint256",
          "name": "_initialSupply",
          "type": "uint256"
        }
      ],
      "stateMutability": "nonpayable",
      "type": "constructor"
    },
    {
      "anonymous": false,
      "inputs": [
        {
          "indexed": true,
          "internalType": "address",
          "name": "from",
          "type": "address"
        },
        {
          "indexed": true,
          "internalType": "address",
          "name": "to",
          "type": "address"
        },
        {
          "indexed": false,
          "internalType": "uint256",
          "name": "value",
          "type": "uint256"
        }
      ],
      "name": "Transfer",
      "type": "event"
    },
    {
      "inputs": [
        {
          "internalType": "address",
          "name": "",
          "type": "address"
        }
      ],
      "name": "balanceOf",
      "outputs": [
        {
          "internalType": "uint256",
          "name": "",
          "type": "uint256"
        }
      ],
      "stateMutability": "view",
      "type": "function",
      "constant": true
    },
    {
      "inputs": [],
      "name": "decimals",
      "outputs": [
        {
          "internalType": "uint8",
          "name": "",
          "type": "uint8"
        }
      ],
      "stateMutability": "view",
      "type": "function",
      "constant": true
    },
    {
      "inputs": [],
      "name": "name",
      "outputs": [
        {
          "internalType": "string",
          "name": "",
          "type": "string"
        }
      ],
      "stateMutability": "view",
      "type": "function",
      "constant": true
    },
    {
      "inputs": [],
      "name": "owner",
      "outputs": [
        {
          "internalType": "address payable",
          "name": "",
          "type": "address"
        }
      ],
      "stateMutability": "view",
      "type": "function",
      "constant": true
    },
    {
      "inputs": [],
      "name": "symbol",
      "outputs": [
        {
          "internalType": "string",
          "name": "",
          "type": "string"
        }
      ],
      "stateMutability": "view",
      "type": "function",
      "constant": true
    },
    {
      "inputs": [],
      "name": "totalSupply",
      "outputs": [
        {
          "internalType": "uint256",
          "name": "",
          "type": "uint256"
        }
      ],
      "stateMutability": "view",
      "type": "function",
      "constant": true
    },
    {
      "inputs": [
        {
          "internalType": "uint256",
          "name": "_amount",
          "type": "uint256"
        }
      ],
      "name": "mint",
      "outputs": [
        {
          "internalType": "bool",
          "name": "success",
          "type": "bool"
        }
      ],
      "stateMutability": "nonpayable",
      "type": "function"
    },
    {
      "inputs": [
        {
          "internalType": "uint256",
          "name": "_amount",
          "type": "uint256"
        }
      ],
      "name": "burn",
      "outputs": [
        {
          "internalType": "bool",
          "name": "success",
          "type": "bool"
        }
      ],
      "stateMutability": "nonpayable",
      "type": "function"
    }
  ],
  "bytecode": "0x60806040523480156200001157600080fd5b506040516200121e3803806200121e83398181016040528101906200003791906200044e565b82600090805190602001906200004f929190620001c6565b50816001908051906020019062000068929190620001c6565b506012600260006101000a81548160ff021916908360ff160217905550670de0b6b3a764000060048190555060045481620000a4919062000517565b60038190555033600560006101000a81548173ffffffffffffffffffffffffffffffffffffffff021916908373ffffffffffffffffffffffffffffffffffffffff16021790555060035460066000600560009054906101000a900473ffffffffffffffffffffffffffffffffffffffff1673ffffffffffffffffffffffffffffffffffffffff1673ffffffffffffffffffffffffffffffffffffffff168152602001908152602001600020819055503373ffffffffffffffffffffffffffffffffffffffff16600073ffffffffffffffffffffffffffffffffffffffff167fddf252ad1be2c89b69c2b068fc378daa952ba7f163c4a11628f55a4df523b3ef600354604051620001b5919062000589565b60405180910390a35050506200060b565b828054620001d490620005d5565b90600052602060002090601f016020900481019282620001f8576000855562000244565b82601f106200021357805160ff191683800117855562000244565b8280016001018555821562000244579182015b828111156200024357825182559160200191906001019062000226565b5b50905062000253919062000257565b5090565b5b808211156200027257600081600090555060010162000258565b5090565b6000604051905090565b600080fd5b600080fd5b600080fd5b600080fd5b6000601f19601f8301169050919050565b7f4e487b7100000000000000000000000000000000000000000000000000000000600052604160045260246000fd5b620002df8262000294565b810181811067ffffffffffffffff82111715620003015762000300620002a5565b5b80604052505050565b60006200031662000276565b9050620003248282620002d4565b919050565b600067ffffffffffffffff821115620003475762000346620002a5565b5b620003528262000294565b9050602081019050919050565b60005b838110156200037f57808201518184015260208101905062000362565b838111156200038f576000848401525b50505050565b6000620003ac620003a68462000329565b6200030a565b905082815260208101848484011115620003cb57620003ca6200028f565b5b620003d88482856200035f565b509392505050565b600082601f830112620003f857620003f76200028a565b5b81516200040a84826020860162000395565b91505092915050565b6000819050919050565b620004288162000413565b81146200043457600080fd5b50565b60008151905062000448816200041d565b92915050565b6000806000606084860312156200046a576200046962000280565b5b600084015167ffffffffffffffff8111156200048b576200048a62000285565b5b6200049986828701620003e0565b935050602084015167ffffffffffffffff811115620004bd57620004bc62000285565b5b620004cb86828701620003e0565b9250506040620004de8682870162000437565b9150509250925092565b7f4e487b7100000000000000000000000000000000000000000000000000000000600052601160045260246000fd5b6000620005248262000413565b9150620005318362000413565b9250817fffffffffffffffffffffffffffffffffffffffffffffffffffffffffffffffff04831182151516156200056d576200056c620004e8565b5b828202905092915050565b620005838162000413565b82525050565b6000602082019050620005a0600083018462000578565b92915050565b7f4e487b7100000000000000000000000000000000000000000000000000000000600052602260045260246000fd5b60006002820490506001821680620005ee57607f821691505b60208210811415620006055762000604620005a6565b5b50919050565b610c03806200061b6000396000f3fe608060405234801561001057600080fd5b50600436106100a5576000357c01000000000000000000000000000000000000000000000000000000009004806370a082311161007857806370a08231146101345780638da5cb5b1461016457806395d89b4114610182578063a0712d68146101a0576100a5565b806306fdde03146100aa57806318160ddd146100c8578063313ce567146100e657806342966c6814610104575b600080fd5b6100b26101d0565b6040516100bf919061072d565b60405180910390f35b6100d061025e565b6040516100dd9190610768565b60405180910390f35b6100ee610264565b6040516100fb919061079f565b60405180910390f35b61011e600480360381019061011991906107eb565b610277565b60405161012b9190610833565b60405180910390f35b61014e600480360381019061014991906108ac565b610431565b60405161015b9190610768565b60405180910390f35b61016c610449565b60405161017991906108fa565b60405180910390f35b61018a61046f565b604051610197919061072d565b60405180910390f35b6101ba60048036038101906101b591906107eb565b6104fd565b6040516101c79190610833565b60405180910390f35b600080546101dd90610944565b80601f016020809104026020016040519081016040528092919081815260200182805461020990610944565b80156102565780601f1061022b57610100808354040283529160200191610256565b820191906000526020600020905b81548152906001019060200180831161023957829003601f168201915b505050505081565b60035481565b600260009054906101000a900460ff1681565b60008073ffffffffffffffffffffffffffffffffffffffff163373ffffffffffffffffffffffffffffffffffffffff1614156102e8576040517f08c379a00000000000000000000000000000000000000000000000000000000081526004016102df906109c2565b60405180910390fd5b816003541161032c576040517f08c379a000000000000000000000000000000000000000000000000000000000815260040161032390610a2e565b60405180910390fd5b6004548261033a9190610a7d565b6003600082825461034b9190610ad7565b92505081905550600454826103609190610a7d565b600660003373ffffffffffffffffffffffffffffffffffffffff1673ffffffffffffffffffffffffffffffffffffffff16815260200190815260200160002060008282546103ae9190610ad7565b92505081905550600073ffffffffffffffffffffffffffffffffffffffff163373ffffffffffffffffffffffffffffffffffffffff167fddf252ad1be2c89b69c2b068fc378daa952ba7f163c4a11628f55a4df523b3ef600454856104139190610a7d565b6040516104209190610768565b60405180910390a360019050919050565b60066020528060005260406000206000915090505481565b600560009054906101000a900473ffffffffffffffffffffffffffffffffffffffff1681565b6001805461047c90610944565b80601f01602080910402602001604051908101604052809291908181526020018280546104a890610944565b80156104f55780601f106104ca576101008083540402835291602001916104f5565b820191906000526020600020905b8154815290600101906020018083116104d857829003601f168201915b505050505081565b6000600560009054906101000a900473ffffffffffffffffffffffffffffffffffffffff1673ffffffffffffffffffffffffffffffffffffffff163373ffffffffffffffffffffffffffffffffffffffff161461058f576040517f08c379a000000000000000000000000000000000000000000000000000000000815260040161058690610b57565b60405180910390fd5b6004548261059d9190610a7d565b600360008282546105ae9190610b77565b92505081905550600454826105c39190610a7d565b600660003373ffffffffffffffffffffffffffffffffffffffff1673ffffffffffffffffffffffffffffffffffffffff16815260200190815260200160002060008282546106119190610b77565b925050819055503373ffffffffffffffffffffffffffffffffffffffff16600073ffffffffffffffffffffffffffffffffffffffff167fddf252ad1be2c89b69c2b068fc378daa952ba7f163c4a11628f55a4df523b3ef600454856106769190610a7d565b6040516106839190610768565b60405180910390a360019050919050565b600081519050919050565b600082825260208201905092915050565b60005b838110156106ce5780820151818401526020810190506106b3565b838111156106dd576000848401525b50505050565b6000601f19601f8301169050919050565b60006106ff82610694565b610709818561069f565b93506107198185602086016106b0565b610722816106e3565b840191505092915050565b6000602082019050818103600083015261074781846106f4565b905092915050565b6000819050919050565b6107628161074f565b82525050565b600060208201905061077d6000830184610759565b92915050565b600060ff82169050919050565b61079981610783565b82525050565b60006020820190506107b46000830184610790565b92915050565b600080fd5b6107c88161074f565b81146107d357600080fd5b50565b6000813590506107e5816107bf565b92915050565b600060208284031215610801576108006107ba565b5b600061080f848285016107d6565b91505092915050565b60008115159050919050565b61082d81610818565b82525050565b60006020820190506108486000830184610824565b92915050565b600073ffffffffffffffffffffffffffffffffffffffff82169050919050565b60006108798261084e565b9050919050565b6108898161086e565b811461089457600080fd5b50565b6000813590506108a681610880565b92915050565b6000602082840312156108c2576108c16107ba565b5b60006108d084828501610897565b91505092915050565b60006108e48261084e565b9050919050565b6108f4816108d9565b82525050565b600060208201905061090f60008301846108eb565b92915050565b7f4e487b7100000000000000000000000000000000000000000000000000000000600052602260045260246000fd5b6000600282049050600182168061095c57607f821691505b602082108114156109705761096f610915565b5b50919050565b7f496e76616c6964206275726e20726563697069656e7400000000000000000000600082015250565b60006109ac60168361069f565b91506109b782610976565b602082019050919050565b600060208201905081810360008301526109db8161099f565b9050919050565b7f4275726e20616d6f756e7420657863656564732062616c616e63650000000000600082015250565b6000610a18601b8361069f565b9150610a23826109e2565b602082019050919050565b60006020820190508181036000830152610a4781610a0b565b9050919050565b7f4e487b7100000000000000000000000000000000000000000000000000000000600052601160045260246000fd5b6000610a888261074f565b9150610a938361074f565b9250817fffffffffffffffffffffffffffffffffffffffffffffffffffffffffffffffff0483118215151615610acc57610acb610a4e565b5b828202905092915050565b6000610ae28261074f565b9150610aed8361074f565b925082821015610b0057610aff610a4e565b5b828203905092915050565b7f4f7065726174696f6e20756e617574686f726973656400000000000000000000600082015250565b6000610b4160168361069f565b9150610b4c82610b0b565b602082019050919050565b60006020820190508181036000830152610b7081610b34565b9050919050565b6000610b828261074f565b9150610b8d8361074f565b9250827fffffffffffffffffffffffffffffffffffffffffffffffffffffffffffffffff03821115610bc257610bc1610a4e565b5b82820190509291505056fea2646970667358221220ae2fa84364e036e761a287cec1005c66902b93a7f0037d604193a87d65ed09e164736f6c634300080c0033",
  "immutableReferences": {},
  "source": "// SPDX-License-Identifier: MIT\r\npragma solidity >=0.4.22 <0.9.0;\r\n\r\ncontract Token {\r\n    string public name;\r\n    string public symbol;\r\n    uint8 public decimals;\r\n    uint256 public totalSupply;\r\n    uint256 _wei;\r\n    address payable public owner;\r\n\r\n    mapping (address => uint256) public balanceOf;\r\n\r\n    event Transfer(address indexed from, address indexed to, uint256 value);\r\n\r\n    constructor(\r\n        string memory _name,\r\n        string memory _symbol,\r\n        uint256 _initialSupply\r\n    ) {\r\n        name = _name;\r\n        symbol = _symbol;\r\n        decimals = 18;\r\n        _wei = 1000000000000000000;\r\n        totalSupply = _initialSupply * _wei;\r\n\r\n        owner = payable(msg.sender);\r\n\r\n        balanceOf[owner] = totalSupply;\r\n\r\n        emit Transfer(address(0), msg.sender, totalSupply);\r\n    }\r\n\r\n    function mint(uint256 _amount) public returns (bool success) {\r\n        require(msg.sender == owner, \"Operation unauthorised\");\r\n\r\n        totalSupply += _amount * _wei;\r\n        balanceOf[msg.sender] += _amount * _wei;\r\n\r\n        emit Transfer(address(0), msg.sender, _amount * _wei);\r\n        return true;\r\n    }\r\n\r\n    function burn(uint256 _amount) public returns (bool success) {\r\n        require(msg.sender != address(0), \"Invalid burn recipient\");\r\n        require(totalSupply > _amount, \"Burn amount exceeds balance\");\r\n\r\n        totalSupply -= _amount * _wei;\r\n        balanceOf[msg.sender] -= _amount * _wei;\r\n\r\n        emit Transfer(msg.sender, address(0), _amount * _wei);\r\n        return true;\r\n    }\r\n}\r\n",
  "sourcePath": "D:\\Delete Workspaces\\Flutter\\flutter_token\\contracts\\Token.sol",
  "compiler": {
    "name": "solc",
    "version": "0.8.12+commit.f00d7308.Emscripten.clang"
  },
  "schemaVersion": "3.4.6",
  "updatedAt": "2022-03-30T13:58:51.581Z",
  "networkType": "ethereum",
  "devdoc": {
    "kind": "dev",
    "methods": {},
    "version": 1
  },
  "userdoc": {
    "kind": "user",
    "methods": {},
    "version": 1
  }
}